:1000000033C0000066C000004AC0000048C00000C5
:1000100046C0000044C0000042C0000040C00000D4
:100020003EC000003CC000003AC0000038C00000E4
:1000300036C0000034C0000032C0000030C00000F4
:100040002EC000002CC000002AC0000028C0000004
:1000500026C0000024C0000022C0000020C0000014
:100060001EC000001CC0000011241FBECFEFD8E04E
:10007000DEBFCDBF11E0A0E0B1E0E2E3F3E002C0FB
:1000800005900D92A230B107D9F721E0A2E0B1E0CE
:1000900001C01D92AC32B207E1F748D148C1B0CFE0
:1000A000A82FB92F80E090E041E050EA609530E061
:1000B00009C02D9182279795879510F08427952761
:1000C000305EC8F36F5FA8F30895EADF8D939D93C8
:1000D0000895CF93CFB7CF93C3954C9BE9F74C9B33
:1000E00009C04C9B07C04C9B05C04C9B03C04C9B5C
:1000F00001C0A1C0DF93C0910F01DD27CA5EDE4FB2
:100100004C9B02C0DF91EBCF2F930F931F9309B14C
:100110002FEF04FB20F94F933F9319B14FEF0127C5
:1001200004FB21F93BE031C04E7F012F19B1216062
:1001300028C0102F4D7F2260000009B129C04B7FDD
:100140002460012F000019B12BC019B1477F28602E
:100150002AC04F7E09B120612CC04F7D19B12062A9
:100160002FC04F7B09B1206432C0422709B14993A7
:100170004FEF0000102714FB20F919B11471C9F1D9
:10018000297F91F2012704FB21F909B1237F89F22C
:10019000315058F1102714FB22F919B1277E79F25A
:1001A000012704FB23F92F7C81F209B1102714FBEE
:1001B00024F92F7971F200C019B1012704FB25F948
:1001C0002F7359F200C009B1102714FB26F9223011
:1001D00040F200C019B1012704FB27F9243028F6AA
:1001E0004F77206819B10000F9CF11E01CBB002740
:1001F00017C03B503195C31BD04011E01CBB088198
:10020000033CE9F00B34D9F020910D011981110F55
:100210001213EDCF093641F10D3211F0013E39F7DD
:10022000009314013F914F911F910F912F91DF91F6
:10023000CCB3C0FD51CFCF91CFBFCF9118952091B6
:100240001401222379F310911201112311F5343096
:1002500012F13093120120930E0110910F013BE037
:10026000311B30930F0117C00091120101308CF443
:100270000AE53091000134FD10C000930001C2E096
:10028000D1E00FC02795A8F45150A9F4220F000027
:10029000F9CF4AE503C042ED01C0432FC4E1D0E0ED
:1002A00032E01AB114615C9A1AB90BB120E414E17E
:1002B0005F93012756E00BB9279520F4515021F4A4
:1002C000220FF9CF012756E000003B5A0BB9D0F2BC
:1002D000279528F4515029F4220F0000F9CF012767
:1002E00056E027950BB920F4515021F4220FF9CF95
:1002F000012756E0299133230BB921F60B7E10918B
:100300001301110FC651D0400BB911F010930D011C
:1003100011E01CBB00611AB11B7E402F4B7E5F9128
:1003200000C000C00BB91AB94BB97CCFFFCFF8940D
:02033000FFCFFD
:020332005A006F
:00000001FF
